{
  "contractName": "Projects",
  "abi": [
    {
      "inputs": [],
      "payable": false,
      "stateMutability": "nonpayable",
      "type": "constructor"
    },
    {
      "constant": true,
      "inputs": [
        {
          "internalType": "uint256",
          "name": "",
          "type": "uint256"
        }
      ],
      "name": "projects",
      "outputs": [
        {
          "internalType": "uint256",
          "name": "id",
          "type": "uint256"
        },
        {
          "internalType": "string",
          "name": "name",
          "type": "string"
        },
        {
          "internalType": "string",
          "name": "description",
          "type": "string"
        },
        {
          "internalType": "uint256",
          "name": "voteCount",
          "type": "uint256"
        }
      ],
      "payable": false,
      "stateMutability": "view",
      "type": "function"
    },
    {
      "constant": true,
      "inputs": [],
      "name": "projectsCount",
      "outputs": [
        {
          "internalType": "uint256",
          "name": "",
          "type": "uint256"
        }
      ],
      "payable": false,
      "stateMutability": "view",
      "type": "function"
    },
    {
      "constant": true,
      "inputs": [
        {
          "internalType": "address",
          "name": "",
          "type": "address"
        }
      ],
      "name": "voters",
      "outputs": [
        {
          "internalType": "bool",
          "name": "",
          "type": "bool"
        }
      ],
      "payable": false,
      "stateMutability": "view",
      "type": "function"
    },
    {
      "constant": true,
      "inputs": [],
      "name": "getVotedCount",
      "outputs": [
        {
          "internalType": "uint256",
          "name": "count",
          "type": "uint256"
        }
      ],
      "payable": false,
      "stateMutability": "view",
      "type": "function"
    },
    {
      "constant": false,
      "inputs": [
        {
          "internalType": "uint256",
          "name": "_projectId",
          "type": "uint256"
        }
      ],
      "name": "vote",
      "outputs": [],
      "payable": false,
      "stateMutability": "nonpayable",
      "type": "function"
    }
  ],
  "bytecode": "0x608060405234801561001057600080fd5b5061006f6040518060400160405280601181526020017f4d4f524520474152424147452043414e5300000000000000000000000000000081525060405180610120016040528060e481526020016109bf60e4913961013260201b60201c565b6100cf6040518060400160405280601081526020017f436f776f726b696e6720737061636573000000000000000000000000000000008152506040518061014001604052806101118152602001610aa3610111913961013260201b60201c565b61012d6040518060400160405280601581526020017f536d617274207075626c6963206c69676874696e67000000000000000000000081525060405180610120016040528060f781526020016108c860f7913961013260201b60201c565b610276565b60016000815480929190600101919050555060405180608001604052806001548152602001838152602001828152602001600081525060008060015481526020019081526020016000206000820151816000015560208201518160010190805190602001906101a29291906101d1565b5060408201518160020190805190602001906101bf9291906101d1565b50606082015181600301559050505050565b828054600181600116156101000203166002900490600052602060002090601f016020900481019282601f1061021257805160ff1916838001178555610240565b82800160010185558215610240579182015b8281111561023f578251825591602001919060010190610224565b5b50905061024d9190610251565b5090565b61027391905b8082111561026f576000816000905550600101610257565b5090565b90565b610643806102856000396000f3fe608060405234801561001057600080fd5b50600436106100575760003560e01c80630121b93f1461005c578063107046bd14610078578063648d2af5146100ab578063a3ec138d146100c9578063c73b302e146100f9575b600080fd5b61007660048036036100719190810190610421565b610117565b005b610092600480360361008d9190810190610421565b610209565b6040516100a294939291906104d7565b60405180910390f35b6100b3610369565b6040516100c091906104bc565b60405180910390f35b6100e360048036036100de91908101906103f8565b6103a8565b6040516100f091906104a1565b60405180910390f35b6101016103c8565b60405161010e91906104bc565b60405180910390f35b600260003373ffffffffffffffffffffffffffffffffffffffff1673ffffffffffffffffffffffffffffffffffffffff16815260200190815260200160002060009054906101000a900460ff161561016e57600080fd5b60008111801561018057506001548111155b61018957600080fd5b6001600260003373ffffffffffffffffffffffffffffffffffffffff1673ffffffffffffffffffffffffffffffffffffffff16815260200190815260200160002060006101000a81548160ff0219169083151502179055506000808281526020019081526020016000206003016000815480929190600101919050555050565b6000602052806000526040600020600091509050806000015490806001018054600181600116156101000203166002900480601f0160208091040260200160405190810160405280929190818152602001828054600181600116156101000203166002900480156102bb5780601f10610290576101008083540402835291602001916102bb565b820191906000526020600020905b81548152906001019060200180831161029e57829003601f168201915b505050505090806002018054600181600116156101000203166002900480601f0160208091040260200160405190810160405280929190818152602001828054600181600116156101000203166002900480156103595780601f1061032e57610100808354040283529160200191610359565b820191906000526020600020905b81548152906001019060200180831161033c57829003601f168201915b5050505050908060030154905084565b600080600190505b60015481116103a15760008082815260200190815260200160002060030154820191508080600101915050610371565b5080905090565b60026020528060005260406000206000915054906101000a900460ff1681565b60015481565b6000813590506103dd816105d2565b92915050565b6000813590506103f2816105e9565b92915050565b60006020828403121561040a57600080fd5b6000610418848285016103ce565b91505092915050565b60006020828403121561043357600080fd5b6000610441848285016103e3565b91505092915050565b61045381610558565b82525050565b60006104648261052a565b61046e8185610535565b935061047e81856020860161058e565b610487816105c1565b840191505092915050565b61049b81610584565b82525050565b60006020820190506104b6600083018461044a565b92915050565b60006020820190506104d16000830184610492565b92915050565b60006080820190506104ec6000830187610492565b81810360208301526104fe8186610459565b905081810360408301526105128185610459565b90506105216060830184610492565b95945050505050565b600081519050919050565b600082825260208201905092915050565b600061055182610564565b9050919050565b60008115159050919050565b600073ffffffffffffffffffffffffffffffffffffffff82169050919050565b6000819050919050565b60005b838110156105ac578082015181840152602081019050610591565b838111156105bb576000848401525b50505050565b6000601f19601f8301169050919050565b6105db81610546565b81146105e657600080fd5b50565b6105f281610584565b81146105fd57600080fd5b5056fea365627a7a72315820cc1cb84a10716fa04b24fa3e91d7a96090b27cb03ac93ab239777c0766c2d72a6c6578706572696d656e74616cf564736f6c634300051000404c6967687420706f6c6c7574696f6e206973206e6f74206120776f726420796f752068656172206f6674656e2c206275742069742069732061207265616c6974792e204e6567617469766520696d70616374206f6e20666c6f726120616e64206661756e612c2064697372757074696f6e206f6620726f61642075736572732c20656e6572677920696e656666696369656e637920617265206a757374206120666577206f66207468652070726f626c656d73206974206272696e67732e20536d617274206c69676874696e6720736f6c766573207468652070726f626c656d2120416e6420666f7220746861742e2e2e20766f74652e45766572792063697479206e656564732074726173682063616e732e2043757272656e746c792c20746865726520617265206e6f7420656e6f756768206f66207468656d2c20616e642062656361757365206f6620746869732c20636974697a656e73207468726f7720776173746520696e746f206e6174757265206f722074616b6520697420746f20746865697220686f6d657320746f20646973706f7365206f662069742e2057652077616e74206120636c65616e20616e64207469647920636974792c20646f6e27742077653f20496620796f752061677265652c20766f74652e596f7520646f6e2774206861766520616465717561746520737061636520746f20776f726b20617420686f6d653f20446f20796f75206e6565642070656163653f20446f20796f752077616e742061206d6f726520636f6d666f727461626c652063686169723f20426574746572206c69676874696e673f20496e7465726e65743f2045766572797468696e673f20596f7520646f6e27742077616e7420746f2072656e7420616e206f66666963652073706163652c20627574207374696c6c2077616e7420746f2068617665206120706c61636520776865726520796f752063616e20776f726b3f20436f776f726b696e6720737061636573206172652074686520736f6c7574696f6e2120566f7465",
  "source": "pragma solidity >=0.4.22 <0.9.0;\npragma experimental ABIEncoderV2;\n\ncontract Projects {\n    struct Project {\n        uint256 id;\n        string name;\n        string description;\n        uint256 voteCount;\n    }\n\n    constructor() public {\n        //utf-8 encoded\n        addProject(\"\\x4D\\x4F\\x52\\x45\\x20\\x47\\x41\\x52\\x42\\x41\\x47\\x45\\x20\\x43\\x41\\x4E\\x53\", \"\\x45\\x76\\x65\\x72\\x79\\x20\\x63\\x69\\x74\\x79\\x20\\x6E\\x65\\x65\\x64\\x73\\x20\\x74\\x72\\x61\\x73\\x68\\x20\\x63\\x61\\x6E\\x73\\x2E\\x20\\x43\\x75\\x72\\x72\\x65\\x6E\\x74\\x6C\\x79\\x2C\\x20\\x74\\x68\\x65\\x72\\x65\\x20\\x61\\x72\\x65\\x20\\x6E\\x6F\\x74\\x20\\x65\\x6E\\x6F\\x75\\x67\\x68\\x20\\x6F\\x66\\x20\\x74\\x68\\x65\\x6D\\x2C\\x20\\x61\\x6E\\x64\\x20\\x62\\x65\\x63\\x61\\x75\\x73\\x65\\x20\\x6F\\x66\\x20\\x74\\x68\\x69\\x73\\x2C\\x20\\x63\\x69\\x74\\x69\\x7A\\x65\\x6E\\x73\\x20\\x74\\x68\\x72\\x6F\\x77\\x20\\x77\\x61\\x73\\x74\\x65\\x20\\x69\\x6E\\x74\\x6F\\x20\\x6E\\x61\\x74\\x75\\x72\\x65\\x20\\x6F\\x72\\x20\\x74\\x61\\x6B\\x65\\x20\\x69\\x74\\x20\\x74\\x6F\\x20\\x74\\x68\\x65\\x69\\x72\\x20\\x68\\x6F\\x6D\\x65\\x73\\x20\\x74\\x6F\\x20\\x64\\x69\\x73\\x70\\x6F\\x73\\x65\\x20\\x6F\\x66\\x20\\x69\\x74\\x2E\\x20\\x57\\x65\\x20\\x77\\x61\\x6E\\x74\\x20\\x61\\x20\\x63\\x6C\\x65\\x61\\x6E\\x20\\x61\\x6E\\x64\\x20\\x74\\x69\\x64\\x79\\x20\\x63\\x69\\x74\\x79\\x2C\\x20\\x64\\x6F\\x6E\\x27\\x74\\x20\\x77\\x65\\x3F\\x20\\x49\\x66\\x20\\x79\\x6F\\x75\\x20\\x61\\x67\\x72\\x65\\x65\\x2C\\x20\\x76\\x6F\\x74\\x65\\x2E\");\n        addProject(\"\\x43\\x6F\\x77\\x6F\\x72\\x6B\\x69\\x6E\\x67\\x20\\x73\\x70\\x61\\x63\\x65\\x73\",\"\\x59\\x6F\\x75\\x20\\x64\\x6F\\x6E\\x27\\x74\\x20\\x68\\x61\\x76\\x65\\x20\\x61\\x64\\x65\\x71\\x75\\x61\\x74\\x65\\x20\\x73\\x70\\x61\\x63\\x65\\x20\\x74\\x6F\\x20\\x77\\x6F\\x72\\x6B\\x20\\x61\\x74\\x20\\x68\\x6F\\x6D\\x65\\x3F\\x20\\x44\\x6F\\x20\\x79\\x6F\\x75\\x20\\x6E\\x65\\x65\\x64\\x20\\x70\\x65\\x61\\x63\\x65\\x3F\\x20\\x44\\x6F\\x20\\x79\\x6F\\x75\\x20\\x77\\x61\\x6E\\x74\\x20\\x61\\x20\\x6D\\x6F\\x72\\x65\\x20\\x63\\x6F\\x6D\\x66\\x6F\\x72\\x74\\x61\\x62\\x6C\\x65\\x20\\x63\\x68\\x61\\x69\\x72\\x3F\\x20\\x42\\x65\\x74\\x74\\x65\\x72\\x20\\x6C\\x69\\x67\\x68\\x74\\x69\\x6E\\x67\\x3F\\x20\\x49\\x6E\\x74\\x65\\x72\\x6E\\x65\\x74\\x3F\\x20\\x45\\x76\\x65\\x72\\x79\\x74\\x68\\x69\\x6E\\x67\\x3F\\x20\\x59\\x6F\\x75\\x20\\x64\\x6F\\x6E\\x27\\x74\\x20\\x77\\x61\\x6E\\x74\\x20\\x74\\x6F\\x20\\x72\\x65\\x6E\\x74\\x20\\x61\\x6E\\x20\\x6F\\x66\\x66\\x69\\x63\\x65\\x20\\x73\\x70\\x61\\x63\\x65\\x2C\\x20\\x62\\x75\\x74\\x20\\x73\\x74\\x69\\x6C\\x6C\\x20\\x77\\x61\\x6E\\x74\\x20\\x74\\x6F\\x20\\x68\\x61\\x76\\x65\\x20\\x61\\x20\\x70\\x6C\\x61\\x63\\x65\\x20\\x77\\x68\\x65\\x72\\x65\\x20\\x79\\x6F\\x75\\x20\\x63\\x61\\x6E\\x20\\x77\\x6F\\x72\\x6B\\x3F\\x20\\x43\\x6F\\x77\\x6F\\x72\\x6B\\x69\\x6E\\x67\\x20\\x73\\x70\\x61\\x63\\x65\\x73\\x20\\x61\\x72\\x65\\x20\\x74\\x68\\x65\\x20\\x73\\x6F\\x6C\\x75\\x74\\x69\\x6F\\x6E\\x21\\x20\\x56\\x6F\\x74\\x65\");\n        addProject(\"\\x53\\x6D\\x61\\x72\\x74\\x20\\x70\\x75\\x62\\x6C\\x69\\x63\\x20\\x6C\\x69\\x67\\x68\\x74\\x69\\x6E\\x67\",\"\\x4C\\x69\\x67\\x68\\x74\\x20\\x70\\x6F\\x6C\\x6C\\x75\\x74\\x69\\x6F\\x6E\\x20\\x69\\x73\\x20\\x6E\\x6F\\x74\\x20\\x61\\x20\\x77\\x6F\\x72\\x64\\x20\\x79\\x6F\\x75\\x20\\x68\\x65\\x61\\x72\\x20\\x6F\\x66\\x74\\x65\\x6E\\x2C\\x20\\x62\\x75\\x74\\x20\\x69\\x74\\x20\\x69\\x73\\x20\\x61\\x20\\x72\\x65\\x61\\x6C\\x69\\x74\\x79\\x2E\\x20\\x4E\\x65\\x67\\x61\\x74\\x69\\x76\\x65\\x20\\x69\\x6D\\x70\\x61\\x63\\x74\\x20\\x6F\\x6E\\x20\\x66\\x6C\\x6F\\x72\\x61\\x20\\x61\\x6E\\x64\\x20\\x66\\x61\\x75\\x6E\\x61\\x2C\\x20\\x64\\x69\\x73\\x72\\x75\\x70\\x74\\x69\\x6F\\x6E\\x20\\x6F\\x66\\x20\\x72\\x6F\\x61\\x64\\x20\\x75\\x73\\x65\\x72\\x73\\x2C\\x20\\x65\\x6E\\x65\\x72\\x67\\x79\\x20\\x69\\x6E\\x65\\x66\\x66\\x69\\x63\\x69\\x65\\x6E\\x63\\x79\\x20\\x61\\x72\\x65\\x20\\x6A\\x75\\x73\\x74\\x20\\x61\\x20\\x66\\x65\\x77\\x20\\x6F\\x66\\x20\\x74\\x68\\x65\\x20\\x70\\x72\\x6F\\x62\\x6C\\x65\\x6D\\x73\\x20\\x69\\x74\\x20\\x62\\x72\\x69\\x6E\\x67\\x73\\x2E\\x20\\x53\\x6D\\x61\\x72\\x74\\x20\\x6C\\x69\\x67\\x68\\x74\\x69\\x6E\\x67\\x20\\x73\\x6F\\x6C\\x76\\x65\\x73\\x20\\x74\\x68\\x65\\x20\\x70\\x72\\x6F\\x62\\x6C\\x65\\x6D\\x21\\x20\\x41\\x6E\\x64\\x20\\x66\\x6F\\x72\\x20\\x74\\x68\\x61\\x74\\x2E\\x2E\\x2E\\x20\\x76\\x6F\\x74\\x65\\x2E\");\n    }\n\n    mapping(uint256 => Project) public projects;\n    uint256 public projectsCount;\n\n    mapping(address => bool) public voters;\n\n    function addProject(string memory _name, string memory _description)\n        private\n    {\n        projectsCount++;\n        projects[projectsCount] = Project(\n            projectsCount,\n            _name,\n            _description,\n            0\n        );\n    }\n\n    function getVotedCount() public view returns (uint256 count) {\n        for (uint256 i = 1; i <= projectsCount; i++) {\n            count += projects[i].voteCount;\n        }\n        return count;\n    }\n\n    function vote(uint256 _projectId) public {\n        //checking that this address hasn't voted before\n        require(!voters[msg.sender]);\n        //make sure that projectid is valid\n        require(_projectId > 0 && _projectId <= projectsCount);\n        //setting that a voter has voted\n        voters[msg.sender] = true;\n        //incrementing votecount for project\n        projects[_projectId].voteCount++;\n    }\n}\n",
  "sourcePath": "C:\\Users\\the AK\\Downloads\\choose-wisely-master\\choose-wisely-master\\contracts\\Projects.sol",
  "compiler": {
    "name": "solc",
    "version": "0.5.16+commit.9c3226ce.Emscripten.clang"
  },
  "schemaVersion": "3.4.11",
  "updatedAt": "2022-12-05T13:58:17.970Z",
  "networkType": "ethereum",
  "devdoc": {
    "methods": {}
  },
  "userdoc": {
    "methods": {}
  }
}